:020000040800F2
:1000000000000220113900082D2400082F240008C8
:1000100031240008332400083524000800000000C3
:10002000000000000000000000000000372400086D
:1000300039240008000000003B2400083D2400088B
:100040006139000861390008613900086139000828
:100050006139000861390008613900086139000818
:100060006139000861390008613900086139000808
:1000700061390008613900086139000861390008F8
:10008000613900086139000861390008000000008A
:1000900000000000000000000000000061390008BE
:1000A00061390008613900086139000861390008C8
:1000B00061390008613900086139000861390008B8
:1000C00061390008613900086139000861390008A8
:1000D000613900086139000861390008000000003A
:1000E000613900086139000861390008000000002A
:1000F000000000000000000000000000613900085E
:100100000000000061390008613900086139000809
:1001100000000000000000000000000000000000DF
:100120006139000861390008613900086139000847
:10013000613900080000000000000000000000001D
:10014000000000000000000000000000613900080D
:100150006139000861390008613900086139000817
:10016000613900086139000800000000000000004B
:10017000000000000000000000000000000000007F
:1001800000000000613900080000000000000000CD
:08019000613900086139000823
:1001A00010B5054C237833B9044B13B10448AFF3B1
:1001B00000800123237010BDE0010020000000003A
:1001C0008061000808B5034B1BB103490348AFF336
:1001D000008008BD00000000E401002080610008EC
:1001E000034613F8012B002AFBD1181A0138704777
:1001F00001F0FF01102A2BDB10F0070F08D010F8D8
:10020000013B013A8B422DD010F0070F42B3F6D1DB
:10021000F0B441EA012141EA014122F007047FF0F4
:1002200000070023F0E80256083C85EA010586EA4B
:10023000010685FA47F5A3FA87F586FA47F6A5FA87
:1002400087F68EB9EED1F0BC01F0FF0102F0070293
:1002500032B110F8013B013A83EA010313B1F8D13E
:100260000020704701387047002D06BF354603381F
:10027000073815F0010F07D1013015F4807F02BF58
:10028000013015F4C03F0130F0BC0138704700BFA9
:1002900081F0004102E000BF83F0004330B54FEA37
:1002A00041044FEA430594EA050F08BF90EA020FA4
:1002B0001FBF54EA000C55EA020C7FEA645C7FEA37
:1002C000655C00F0E2804FEA5454D4EB5555B8BF5A
:1002D0006D420CDD2C4480EA020281EA030382EACB
:1002E000000083EA010180EA020281EA0303362D5D
:1002F00088BF30BD11F0004F4FEA01314FF4801C30
:100300004CEA113102D0404261EB410113F0004F41
:100310004FEA03334CEA133302D0524263EB4303F8
:1003200094EA050F00F0A780A4F10104D5F1200E96
:100330000DDB02FA0EFC22FA05F2801841F10001F1
:1003400003FA0EF2801843FA05F359410EE0A5F1C5
:1003500020050EF1200E012A03FA0EFC28BF4CF0F6
:10036000020C43FA05F3C01851EBE37101F00045AC
:1003700007D54FF0000EDCF1000C7EEB00006EEBB9
:100380000101B1F5801F1BD3B1F5001F0CD3490843
:100390005FEA30004FEA3C0C04F101044FEA44529A
:1003A00012F5800F80F09A80BCF1004F08BF5FEA21
:1003B000500C50F1000041EB045141EA050130BD01
:1003C0005FEA4C0C404141EB010111F4801FA4F1A4
:1003D0000104E9D191F0000F04BF01460020B1FAF9
:1003E00081F308BF2033A3F10B03B3F120020CDA31
:1003F0000C3208DD02F1140CC2F10C0201FA0CF00F
:1004000021FA02F10CE002F11402D8BFC2F1200C73
:1004100001FA02F120FA0CFCDCBF41EA0C01904029
:10042000E41AA2BF01EB0451294330BD6FEA040472
:100430001F3C1CDA0C340EDC04F11404C4F120025D
:1004400020FA04F001FA02F340EA030021FA04F36F
:1004500045EA030130BDC4F10C04C4F1200220FAC6
:1004600002F001FA04F340EA0300294630BD21FA04
:1004700004F0294630BD94F0000F83F4801306BFCA
:1004800081F480110134013D4EE77FEA645C18BFBE
:100490007FEA655C29D094EA050F08BF90EA020F55
:1004A00005D054EA000C04BF1946104630BD91EA4D
:1004B000030F1EBF0021002030BD5FEA545C05D150
:1004C0004000494128BF41F0004130BD14F580048F
:1004D0003CBF01F5801130BD01F0004545F0FE4103
:1004E00041F470014FF0000030BD7FEA645C1ABF38
:1004F000194610467FEA655C1CBF0B46024650EA6F
:10050000013406BF52EA033591EA030F41F400219A
:1005100030BD00BF90F0000F04BF0021704730B520
:100520004FF4806404F132044FF000054FF00001F5
:1005300050E700BF90F0000F04BF0021704730B5B6
:100540004FF4806404F1320410F0004548BF40428B
:100550004FF000013EE700BF42004FEAE2014FEAE0
:1005600031014FEA02701FBF12F07F4393F07F4FBB
:1005700081F06051704732F07F4208BF704793F0BE
:100580007F4F04BF41F40021704730B54FF46074D1
:1005900001F0004521F000411CE700BF50EA0102D4
:1005A00008BF704730B54FF000050AE050EA01027D
:1005B00008BF704730B511F0004502D5404261EBED
:1005C00041014FF4806404F132045FEA915C3FF42E
:1005D000D8AE4FF003025FEADC0C18BF03325FEACB
:1005E000DC0C18BF033202EBDC02C2F1200300FA7C
:1005F00003FC20FA02F001FA03FE40EA0E0021FAA1
:1006000002F11444BDE600BF70B54FF0FF0C4CF48E
:10061000E06C1CEA11541DBF1CEA135594EA0C0F40
:1006200095EA0C0F00F0DEF82C4481EA030621EA7B
:100630004C5123EA4C5350EA013518BF52EA0335B6
:1006400041F4801143F4801338D0A0FB02CE4FF068
:100650000005E1FB02E506F00042E0FB03E54FF098
:100660000006E1FB03569CF0000F18BF4EF0010E90
:10067000A4F1FF04B6F5007F64F5407404D25FEA8C
:100680004E0E6D4146EB060642EAC62141EA55513F
:100690004FEAC52040EA5E504FEACE2EB4F1FD0C81
:1006A00088BFBCF5E06F1ED8BEF1004F08BF5FEAFF
:1006B000500E50F1000041EB045170BD06F00046B1
:1006C00046EA010140EA020081EA0301B4EB5C045E
:1006D000C2BFD4EB0C0541EA045170BD41F4801156
:1006E0004FF0000E013C00F3AB8014F1360FDEBF7B
:1006F000002001F0004170BDC4F10004203C35DA57
:100700000C341BDC04F11404C4F1200500FA05F3D9
:1007100020FA04F001FA05F240EA020001F000427A
:1007200021F0004110EBD37021FA04F642EB0601F0
:100730005EEA430E08BF20EAD37070BDC4F10C041A
:10074000C4F1200500FA04F320FA05F001FA04F2DE
:1007500040EA020001F0004110EBD37041F10001CA
:100760005EEA430E08BF20EAD37070BDC4F12005D5
:1007700000FA05F24EEA020E20FA04F301FA05F23D
:1007800043EA020321FA04F001F0004121FA04F2E5
:1007900020EA020000EBD3705EEA430E08BF20EAB5
:1007A000D37070BD94F0000F0FD101F000464000EF
:1007B00041EB010111F4801F08BF013CF7D041EA71
:1007C000060195F0000F18BF704703F00046520075
:1007D00043EB030313F4801F08BF013DF7D043EA46
:1007E0000603704794EA0C0F0CEA135518BF95EAFC
:1007F0000C0F0CD050EA410618BF52EA4306D1D183
:1008000081EA030101F000414FF0000070BD50EAA1
:10081000410606BF1046194652EA430619D094EA2B
:100820000C0F02D150EA013613D195EA0C0F05D115
:1008300052EA03361CBF104619460AD181EA030169
:1008400001F0004141F0FE4141F470014FF0000021
:1008500070BD41F0FE4141F4780170BD70B54FF0BC
:10086000FF0C4CF4E06C1CEA11541DBF1CEA13553C
:1008700094EA0C0F95EA0C0F00F0A7F8A4EB05041E
:1008800081EA030E52EA03354FEA013100F0888015
:100890004FEA03334FF0805545EA131343EA1263DE
:1008A0004FEA022245EA111545EA10654FEA002693
:1008B0000EF000419D4208BF964244F1FD0404F54C
:1008C000407402D25B084FEA3202B61A65EB0305A8
:1008D0005B084FEA32024FF480104FF4002CB6EB65
:1008E000020E75EB030E22BFB61A754640EA0C00E5
:1008F0005B084FEA3202B6EB020E75EB030E22BF25
:10090000B61A754640EA5C005B084FEA3202B6EB65
:10091000020E75EB030E22BFB61A754640EA9C0024
:100920005B084FEA3202B6EB020E75EB030E22BFF4
:10093000B61A754640EADC0055EA060E18D04FEAB2
:10094000051545EA16754FEA06164FEAC30343EA52
:1009500052734FEAC2025FEA1C1CC0D111F4801F1F
:100960000BD141EA00014FF000004FF0004CB6E718
:1009700011F4801F04BF01430020B4F1FD0C88BFB7
:10098000BCF5E06F3FF6AFAEB5EB030C04BFB6EBC2
:10099000020C5FEA500C50F1000041EB045170BDB5
:1009A0000EF0004E4EEA113114EB5C04C2BFD4EBE2
:1009B0000C0541EA045170BD41F480114FF0000E66
:1009C000013C90E645EA060E8DE60CEA135594EAE2
:1009D0000C0F08BF95EA0C0F3FF43BAF94EA0C0FE5
:1009E0000AD150EA01347FF434AF95EA0C0F7FF45A
:1009F00025AF104619462CE795EA0C0F06D152EAAE
:100A000003353FF4FDAE1046194622E750EA410691
:100A100018BF52EA43067FF4C5AE50EA41047FF4A2
:100A20000DAF52EA43057FF4EBAE12E74FF0FF3C07
:100A300006E000BF4FF0010C02E000BF4FF0010CD8
:100A40004DF804CD4FEA410C7FEA6C5C4FEA430C51
:100A500018BF7FEA6C5C1BD001B050EA410C0CBFA0
:100A600052EA430C91EA030F02BF90EA020F002002
:100A7000704710F1000F91EA030F58BF994208BF69
:100A800090422CBFD8176FEAE37040F00100704726
:100A90004FEA410C7FEA6C5C02D150EA013C07D17D
:100AA0004FEA430C7FEA6C5CD6D152EA033CD3D0C8
:100AB0005DF8040B704700BF8446104662468C46C2
:100AC0001946634600E000BF01B5FFF7B7FF0028F5
:100AD00048BF10F1000F01BD4DF808EDFFF7F4FF1E
:100AE0000CBF012000205DF808FB00BF4DF808EDA9
:100AF000FFF7EAFF34BF012000205DF808FB00BFCC
:100B00004DF808EDFFF7E0FF94BF012000205DF8ED
:100B100008FB00BF4DF808EDFFF7CEFF94BF0120A2
:100B200000205DF808FB00BF4DF808EDFFF7C4FF9B
:100B300034BF012000205DF808FB00BF4FEA410CE4
:100B40007FEA6C5C02D150EA013C0AD14FEA430CC7
:100B50007FEA6C5C02D152EA033C02D14FF0000004
:100B600070474FF0010070474FEA410212F5001242
:100B700015D211D56FF47873B3EB625212D94FEAE4
:100B8000C12343F0004343EA505311F0004F23FACE
:100B900002F018BF404270474FF00000704750EA23
:100BA000013005D111F0004008BF6FF000407047E0
:100BB0004FF00000704700BF53B94AB9002908BF81
:100BC00000281CBF4FF0FF314FF0FF3000F072B92A
:100BD000ADF1080C6DE904CE00F006F8DDF804E094
:100BE000DDE9022304B070472DE9F047089E044672
:100BF0008846002B4BD18A42154667D9B2FA82F259
:100C00004AB1C2F1200701FA02F320FA07F7954032
:100C100047EA030894404FEA154E230CB8FBFEF751
:100C20001FFA85FC0EFB178843EA084307FB0CF10B
:100C3000994209D9EB1807F1FF3080F01B819942E6
:100C400040F21881023F2B445B1AA4B2B3FBFEF0C2
:100C50000EFB103344EA034400FB0CFCA44509D905
:100C60002C1900F1FF3380F00781A44540F2048184
:100C700002382C4440EA0740A4EB0C0400271EB1C4
:100C8000D4400023C6E900433946BDE8F0878B42D3
:100C900009D9002E00F0EB800027C6E90001384694
:100CA0003946BDE8F087B3FA83F7002F47D18B426E
:100CB00002D3824200F2FA80841A61EB030301201E
:100CC0009846002EE0D0C6E90048DDE702B9FFDE15
:100CD000B2FA82F2002A40F08F80491B4FEA154E8B
:100CE0001FFA85F80127B1FBFEFC230C0EFB1C113B
:100CF00043EA014308FB0CF1994207D9EB180CF1C8
:100D0000FF3002D2994200F2CD808446591AA3B234
:100D1000B1FBFEF00EFB101443EA044408FB00F89C
:100D2000A04507D92C1900F1FF3302D2A04500F2EB
:100D3000B6801846A4EB080440EA0C409FE7C7F1D0
:100D4000200CBB4022FA0CFE4EEA030E01FA07F417
:100D500020FA0CF521FA0CF34FEA1E482543B3FBA9
:100D6000F8F92C0C08FB19331FFA8EFA44EA0343F6
:100D700009FB0AF49C4202FA07F200FA07F10BD9C8
:100D80001EEB030309F1FF3080F087809C4240F2A4
:100D90008480A9F1020973441B1BADB2B3FBF8F0C8
:100DA00008FB103345EA034400FB0AFAA24508D9C0
:100DB0001EEB040400F1FF336BD2A24569D902385F
:100DC000744440EA0940A0FB0289A4EB0A044C45A4
:100DD000C2464B4654D351D0002E69D0B1EB0A0520
:100DE00064EB030404FA0CFCFD40FC404CEA0505EE
:100DF000C6E90054002747E7C2F1200320FA03F7B1
:100E0000954001FA02F021FA03F34FEA154E3843F8
:100E1000010CB3FBFEF71FFA85F80EFB173341EA0E
:100E2000034107FB08F38B4204FA02F407D969185F
:100E300007F1FF3C2FD28B422DD9023F2944CB1A18
:100E400081B2B3FBFEF00EFB103341EA034100FB1D
:100E500008F38B4207D9691800F1FF3C17D28B4287
:100E600015D902382944C91A40EA07473BE73746F3
:100E7000304609E70746E7E61846FBE64145ABD2B0
:100E8000B8EB020A69EB0E0201381346A4E760468C
:100E9000E9E7184695E76746D1E781467CE70238DF
:100EA0002C4447E7ACF1020C2B442FE7384608E707
:100EB0003746E9E6704700BF70B4036A23F00103C8
:100EC0000362036A4268846924F073040D6845EA8A
:100ED000040623F002048B6823430B4DA84206D07E
:100EE000426086614A684263036270BC704723F0C7
:100EF0000803CC68234323F0040322F440724C69B6
:100F000014438A692243EBE70000014030B4036ACE
:100F100023F480730362036A4268C46924F0730493
:100F20000D682C4323F400738D6843EA05230D4DAF
:100F3000A84206D04260C4614A68C263036230BC02
:100F4000704723F40063CD6843EA052323F48063EC
:100F500022F440524D6942EA05128D6942EA0512B7
:100F6000E8E700BF0000014030B4036A23F4805377
:100F70000362036A4468C26922F4E6420D6842EAE9
:100F8000052223F400538D6843EA0533074DA84238
:100F900006D04460C2614A680264036230BC704794
:100FA00024F480444D6944EA8514F2E700000140CE
:100FB0000368234A90420ED0B0F1804F0BD0A2F5C7
:100FC0007C42904207D002F58062904203D002F545
:100FD0008062904203D123F070034A681343184A99
:100FE00090421AD0B0F1804F17D0A2F57C429042C7
:100FF00013D002F5806290420FD002F580629042D9
:101000000BD002F59A32904207D002F580629042EE
:1010100003D002F58062904203D123F44073CA6882
:10102000134303608B68C3620B688362044B98426E
:1010300002D00123436170470B690363F9E700BFE6
:1010400000000140A8B110B5044690F839305BB1FA
:10105000022384F83930211D2068FFF7A9FF0123FE
:1010600084F83930002010BD80F8383000F012F9D3
:10107000EEE701207047000030B4036A23F010034C
:101080000362036A4468826922F4E6420D6842EA18
:10109000052223F020038D6843EA05130C4DA84276
:1010A00006D0446082614A688263036230BC704744
:1010B00023F08003CD6843EA051323F0400324F4B2
:1010C00040644D6944EA85048D6944EA8504E8E793
:1010D0000000014038B590F83830012B66D00D463D
:1010E0000446012380F83830022380F839300C2A76
:1010F0001AD8DFE802F0071919192019191934193B
:10110000191947000068FFF7D7FE2268936943F07A
:10111000080393612268936923F0040393612268B2
:10112000936929690B439361012384F839300020C6
:1011300084F8380038BD0068FFF79EFF2268936985
:1011400043F4006393612268936923F4806393619D
:1011500022689369296943EA01239361E4E70068FF
:10116000FFF7D4FE2268D36943F00803D3612268F5
:10117000D36923F00403D3612268D36929690B433F
:10118000D361D1E70068FFF7EFFE2268D36943F42B
:101190000063D3612268D36923F48063D36122683A
:1011A000D369296943EA0123D361BDE70220C1E77E
:1011B000074AD36823F4E0631B041B0C000200F40D
:1011C000E060184340F0BF6040F40030D0607047EA
:1011D00000ED00E030B4174BDB68C3F30223C3F12A
:1011E0000704042C28BF04241D1D062D18D9033B19
:1011F0004FF0FF3505FA04F421EA0401994005FA9D
:1012000003F322EA0303194300280BDB0901C9B2E7
:1012100000F1604000F5614080F8001330BC704779
:101220000023E5E700F00F000901C9B2024B195491
:10123000F4E700BF00ED00E014ED00E00138B0F18C
:10124000807F0AD2064B5860064AF02182F82310AC
:101250000020986007221A6070470120704700BF85
:1012600010E000E000ED00E0042805D0054A136816
:1012700023F0040313607047024A136843F0040329
:101280001360704710E000E0704708B5FFF7FCFFFF
:1012900008BD000082B00368B3F1804F04D00F4A4C
:1012A00093420ED002B07047002300930C4B1A6C8F
:1012B00042F001021A641B6C03F001030093009BCF
:1012C000F0E700230193064B1A6C42F004021A6403
:1012D0001B6C03F004030193019BE3E7000800404B
:1012E0000038024000B587B00368B3F1804F05D0E5
:1012F000114A934211D007B05DF804FB4FF400434C
:101300000193022302930023039304930123059383
:1013100001A90A4800F0B2FFEDE74FF420730193F2
:1013200002230293002203920492059301A9044828
:1013300000F0A4FFDFE700BF00080040000002400B
:101340000004024000B58BB01A484FF080430360A0
:101350000023436083600A22C2600361FFF772FECC
:10136000C0B900230893099308A9124800F036FF7A
:10137000A8B960230193002202920392059201A969
:101380000C48FFF7A7FE78B90A48FFF7ABFF0BB090
:101390005DF804FB4221084800F0D0F8E1E749215C
:1013A000054800F0CBF8E4E75221034800F0C6F806
:1013B000EAE700BF700200209861000800B58BB01A
:1013C0002048214B036000234360836040F28F126A
:1013D000C2600361FFF736FE00BB00230893099348
:1013E00008A9184800F0FAFEE8B960230193002329
:1013F00002930393059304220DEB02011148FFF7BA
:1014000069FEA8B90C2201A90E48FFF763FEA0B936
:101410000C48FFF767FF0BB05DF804FB65210B4834
:1014200000F08CF8D9E76C21084800F087F8DCE779
:101430007521064800F082F8E4E77A21034800F0BD
:101440007DF8E5E7100200200008004098610008E0
:1014500010B504460E4B18784FF47A73B3FBF0F3D3
:101460000C4A1068B0FBF3F0FFF7E8FE68B90F2CE8
:1014700001D901200AE0002221464FF0FF30FFF79A
:10148000A9FE054B1C60002000E0012010BD00BF3C
:10149000000000200C0000200400002008B50B4BC9
:1014A0001A6842F400721A601A6842F480621A6084
:1014B0001A6842F480721A600320FFF779FE002058
:1014C000FFF7C6FF00F0C4F8002008BD003C024052
:1014D000034A1168034B1B780B441360704700BF2D
:1014E000AC02002000000020014B1868704700BFCC
:1014F000AC02002038B50446FFF7F6FF0546B4F10C
:10150000FF3F02D0044B1B781C44FFF7EDFF401B4C
:10151000A042FAD338BD00BF0000002000B583B060
:1015200002A901F8010D01231A46034800F0BAFA96
:1015300003B05DF804FB00BFB0020020FEE700002E
:1015400000B595B000220192284B196C41F08051F2
:1015500019641B6C03F080530193019B0292244B8E
:10156000196841F4404119601B6803F44043029339
:10157000029B0223089301210B9110210C910E93E1
:101580000F92082210925022119212930423139367
:1015900008A801F029FB08BB0F2303930221049143
:1015A000002305934FF480520692079303A801F09D
:1015B0003BFDB8B901F0E4FD0E4BA3FB0030800900
:1015C000FFF73CFE0420FFF74FFE002211464FF0CC
:1015D000FF30FFF7FFFD15B05DF804FBA4210648BE
:1015E000FFF7ACFFB2210448FFF7A8FF0038024024
:1015F00000700040D34D6210A461000808B5FFF7E9
:101600004DFFFFF79DFF01F065FA00F005FB00F0CC
:101610002BFBFFF797FEFFF7D1FE00F0B3FA01F0C6
:101620009DF902F05BF900F06FFD0023054A13807D
:10163000054A1380044B1A88024B1988034802F0AC
:101640001FFEF7E76C1A002088060020B061000832
:1016500008B50320FFF7ACFD002211466FF00B0028
:10166000FFF7B8FD002211466FF00A00FFF7B2FD48
:10167000002211466FF00900FFF7ACFD0022114671
:101680006FF00400FFF7A6FD002211466FF0030083
:10169000FFF7A0FD002211466FF00100FFF79AFD51
:1016A000002211464FF0FF30FFF794FD08BD000007
:1016B0002DE9F843044601680A6922F44052C368E0
:1016C00013430B610168CA6822F4164222F00C022F
:1016D00083680069034360690343E069034313437C
:1016E000CB6021684A6922F44072A36913434B61BD
:1016F000E369B3F5004F60D02368B84A934200F025
:10170000148102F58062934200F00F8101F03EFDEA
:1017100000EB800000EB80006568AD00B0FBF5F5E4
:10172000AF4FA7FB05356D092E0101F02FFD00EB32
:10173000800000EB80006568AD00B0FBF5F901F0BA
:1017400025FD00EB800000EB80006568AD00B0FB7C
:10175000F5F5A7FB05356D094FF0640808FB1595F5
:101760002D013235A7FB05356D0905F0F00535442F
:1017700001F00CFD00EB800000EB80006668B60015
:10178000B0FBF6F601F002FD00EB800000EB8000FC
:1017900063689B00B0FBF3F0A7FB0030400908FB37
:1017A00010684FEA081808F13208A7FB0837C7F39A
:1017B000431723682F449F600DE12368874A9342B3
:1017C0005BD002F58062934257D001F0DFFC00EB62
:1017D000800000EB800065686D00B0FBF5F5804F80
:1017E000A7FB05356D092E0101F0D0FC00EB800050
:1017F00000EB800065686D00B0FBF5F901F0C6FCF8
:1018000000EB800000EB800065686D00B0FBF5F533
:10181000A7FB05356D094FF0640808FB1595ED0031
:101820003235A7FB05356D096D0005F4F8753544B3
:1018300001F0ACFC00EB800000EB800066687600F5
:10184000B0FBF6F601F0A2FC00EB800000EB80009C
:1018500063685B00B0FBF3F3A7FB03235B0908FBA2
:1018600013684FEAC80808F13208A7FB0837C7F326
:10187000421723682F449F60ADE001F097FC00EB16
:10188000800000EB800065686D00B0FBF5F5544FFB
:10189000A7FB05356D092E0101F088FC00EB8000E7
:1018A00000EB800065686D00B0FBF5F901F07EFC8F
:1018B00000EB800000EB800065686D00B0FBF5F583
:1018C000A7FB05356D094FF0640808FB1595ED0081
:1018D0003235A7FB05356D096D0005F4F875354403
:1018E00001F064FC00EB800000EB8000666876008D
:1018F000B0FBF6F601F05AFC00EB800000EB800034
:1019000063685B00B0FBF3F3A7FB03235B0908FBF1
:1019100013684FEAC80808F13208A7FB0837C7F375
:10192000421723682F449F6055E001F03FFC00EB15
:10193000800000EB80006568AD00B0FBF5F5284F36
:10194000A7FB05356D092E0101F030FC00EB80008E
:1019500000EB80006568AD00B0FBF5F901F026FCF6
:1019600000EB800000EB80006568AD00B0FBF5F592
:10197000A7FB05356D094FF0640808FB15952D018F
:101980003235A7FB05356D0905F0F005354401F04A
:101990000DFC00EB800000EB80006668B600B0FB39
:1019A000F6F601F003FC00EB800000EB80006368BA
:1019B0009B00B0FBF3F0A7FB0030400908FB106868
:1019C0004FEA081808F13208A7FB0837C7F3431796
:1019D00023682F449F60BDE8F88300BF00100140DA
:1019E0001F85EB512DE9F04105460F4616469846F6
:1019F000069C2B681B6837EA03030CBF01230023F6
:101A0000B3421DD1B4F1FF3FF3D02CB1FFF76CFD11
:101A1000A0EB0800A042ECD92A68D36823F4D07365
:101A2000D3602A68536923F001035361202385F8AA
:101A3000393085F83A30002385F83830032000E04B
:101A40000020BDE8F08158B310B5044690F8393055
:101A50000BB3242384F839302268D36823F400536D
:101A6000D3602046FFF724FE2268136923F49043D5
:101A700013612268536923F02A0353612268D368F3
:101A800043F40053D3600020E063202384F839300E
:101A900084F83A3010BD80F8383000F091F8D8E77B
:101AA000012070472DE9F04182B01E4690F8393090
:101AB000DBB2202B55D104460D469046002955D067
:101AC000002A55D090F83830012B53D0012380F8EC
:101AD00038300023C363212380F83930FFF704FD39
:101AE0000746A4F82480A4F8268010E000963B4620
:101AF000002280212046FFF775FF00283CD12B886B
:101B00002268C3F3080353602369C3B90235E38C29
:101B10009BB2B3B1E38C013B9BB2E384A368B3F502
:101B2000805FE3D000963B46002280212046FFF7ED
:101B300059FF18BB2A7823685A600135E7E7013559
:101B4000E5E700963B46002240212046FFF74AFF8A
:101B50000346A8B9202284F83920002284F83820CE
:101B600000E00223184602B0BDE8F0810123F9E746
:101B70000123F7E70223F5E70323F3E70323F1E764
:101B80000323EFE708B50B480B4B03604FF41643F4
:101B9000436000238360C36003610C224261836160
:101BA000C361FFF750FF00B908BD42210348FFF7AA
:101BB000C5FCF9E7B002002000100140BC6100083C
:101BC0000268124B9A4200D0704700B587B00023DC
:101BD00000930F4B5A6C42F010025A645B6C03F096
:101BE00010030093009B4FF4C06301930223029300
:101BF00001230393032304930723059301A90548B5
:101C000000F03CFB07B05DF804FB00BF0010014092
:101C1000003802400000024008B51048104B036035
:101C20004FF482734360002383604FF40062C2600C
:101C30000361012242614FF4007282611022C2618D
:101C40000362436283620A23C36201F01EFB00B990
:101C500008BD9B210348FFF771FCF9E7480300200A
:101C600000300140FC61000808B51048104B0360CB
:101C70004FF48273436000238360C36002220261D9
:101C8000012242614FF4007282610822C261036244
:101C9000436283620A23C36201F0F7FA00B908BD08
:101CA000B1210448FFF74AFCF9E700BFF002002029
:101CB00000380040FC61000800B589B003681F4A85
:101CC000934205D01E4A93421CD009B05DF804FB34
:101CD000002101911B4B5A6C42F480525A645B6C98
:101CE00003F480530193019BE023039302230493A5
:101CF0000591032306930523079303A9124800F0D7
:101D0000BDFAE2E7002102910E4B1A6C42F48042C8
:101D10001A641B6C03F480430293029B4FF4444308
:101D2000039302230493059103230693052307934A
:101D300003A9064800F0A2FAC7E700BF003001403F
:101D40000038004000380240000002400004024019
:101D500030B583B00446114D00224FF4805128461F
:101D600000F05EFB64F07F0402A901F8014D0C4C09
:101D700064230122204601F0C8FA642301220DF1F8
:101D80000601204601F0B0FC01224FF480512846A4
:101D900000F046FB9DF8060003B030BD0004024091
:101DA000F002002030B583B00446134D00224FF4FA
:101DB0008051284600F034FB64F07F0402A901F84A
:101DC000014D0E4C64230122204601F09EFA64234B
:101DD00001220DF10601204601F086FC9DF8064027
:101DE000240224B201224FF48051284600F018FB4F
:101DF000204603B030BD00BF00040240F0020020C6
:101E000070B584B08DF8071000F07F0004AC04F8C2
:101E1000010D0E4D00224FF48051284600F000FBCA
:101E20000B4E642301222146304601F06EFA6423F2
:101E300001220DF10701304601F067FA01224FF44B
:101E40008051284600F0ECFA04B070BD0004024056
:101E5000F002002010B56420FFF74CFB7520FFF75F
:101E600077FF044601461B4802F00AFA702C10D096
:101E70004FF49670FFF73EFB7520FFF769FF0146B0
:101E8000702803D0144802F0FBF9FBE7134802F076
:101E9000F7F93220FFF72EFB00216B20FFF7B0FF90
:101EA0003220FFF727FB00211A20FFF7A9FF32207D
:101EB000FFF720FB18211B20FFF7A2FF3220FFF7BE
:101EC00019FB18211C20FFF79BFF054B01221A70FC
:101ED00010BD00BFC8610008D4610008E0610008BF
:101EE0000800002010B54720FFF75CFF044648209B
:101EF000FFF72EFF00B2044324B207EE904AF8EE3B
:101F0000E77A054B93ED000A77EEC07A9FED030A5E
:101F100087EE800A10BD00BF0002002033338341EA
:101F20000023054A1360002204490A8004490A700C
:101F3000044AD360704700BF00020020FC0100206B
:101F400008000020E407002010B54720FFF72AFF13
:101F500004464820FFF7FCFE00B20443114BB3F9DE
:101F6000003040F2FE3293420CDD0F4BD3ED006A9D
:101F70009FED0E7AC6EE877AC3ED007A0C4B0122F4
:101F80001A7010BD24B207EE904AF8EEE77A064ABE
:101F900092ED007A77EE277AC2ED007A0133014A9A
:101FA0001380EEE7FC0100200002002000C07F4407
:101FB0000800002008B50B4B93F9003013B9FFF768
:101FC000C3FF08BDFFF78EFF074B83ED010ADFED6E
:101FD000077A80EE277AD3ED037A77EE877AC3ED1E
:101FE000037AEEE708000020E407002000007A44AE
:101FF00080EA102080EA101080EA900080EA500009
:1020000000F001007047000070B582B005460E4632
:1020100000238DF804308DF80530140A8DF8004047
:102020008DF801201A4600F0FBF99DF8004044F0BD
:1020300040049DF8010040EA0420FFF7D9FF44EA7C
:10204000C01002A901F8080D0D4C4FF47A7301225B
:10205000204601F05AF94FF47A73012201A9204673
:1020600001F042FB01223146284600F0D9F99DF8E3
:1020700004009DF8053043EA002002B070BD00BFA7
:102080004803002070B582B005460E461C0A8DF844
:1020900004408DF80530130A8DF800308DF80120CA
:1020A000002200F0BDF99DF800409DF8010040EAD3
:1020B0000420FFF79DFF44EAC0108DF800009DF852
:1020C00004409DF8050040EA0420FFF791FF44EA30
:1020D000C0108DF804000B4C4FF47A73012269464E
:1020E000204601F012F94FF47A73012201A920462B
:1020F00001F00BF901223146284600F091F902B0B7
:1021000070BD00BF4803002010B5264C882316225E
:1021100001212046FFF7B6FF6420FFF7EBF91F23EC
:10212000172201212046FFF7ADFF6420FFF7E2F9F7
:102130000723182201212046FFF7A4FF6420FFF7A0
:10214000D9F90023192201212046FFF79BFF6420C3
:10215000FFF7D0F904F58064882316220121204678
:10216000FFF790FF6420FFF7C5F91F231722012115
:102170002046FFF787FF6420FFF7BCF907231822EA
:1021800001212046FFF77EFF6420FFF7B3F900230B
:10219000192201212046FFF775FF6420FFF7AAF9F5
:1021A00010BD00BF0000024008B543F6FF720121D8
:1021B0000648FFF729FF064B188043F6FF720121FE
:1021C0000448FFF721FF044B188008BD00040240BB
:1021D0006C1A0020000002408806002090F8383079
:1021E000012B22D030B4012280F83820022380F85D
:1021F00039300468636823F07003636004686368BF
:102200000D682B4363600468A36823F08003A36018
:102210000468A36849680B43A36080F83920002351
:1022200080F83830184630BC7047022070470000F4
:102230000F49D1F8883043F47003C1F888300D4B52
:102240001A6842F001021A60002098601A6822F0B1
:10225000847222F480321A60074A5A601A6822F4A3
:1022600080221A60D8604FF000638B60704700BF17
:1022700000ED00E0003802401030002400230F2B56
:1022800000F2C580F0B482B039E0042200E0002200
:10229000B2403A4302345E4E46F824205D4A146848
:1022A000EA4302EA04064F6817F4803F01D045EA8A
:1022B0000406584C2660646802EA04064F6817F466
:1022C000003F01D045EA0406524C6660A46802EA69
:1022D00004064F6817F4801F01D045EA04064D4CF0
:1022E000A660E46822404E6816F4001F01D045EA5B
:1022F0000402484CE26001330F2B00F2858001227A
:102300009A400C6804EA0205AA42F4D14C68022CF7
:1023100001D0122C10D1DE08083650F826C003F088
:102320000704A7000F24BC402CEA040C0C69BC4035
:1023300044EA0C0440F8264004685F000326BE40CF
:10234000F64306EA040C4C6804F00304BC4044EA7B
:102350000C0404604C6804F1FF3CBCF1010F03D98C
:10236000112C01D0122C10D1846806EA040CCC6820
:10237000BC4044EA0C048460446824EA02024C68CD
:10238000C4F300149C4014434460C26816408A6839
:10239000BA403243C2604A6812F0805FABD000227C
:1023A00001921D4A546C44F480445464526C02F40B
:1023B00080420192019A9C08A61C154A52F8267088
:1023C00003F0030296000F22B24027EA0207134AE5
:1023D00090423FF45CAF02F5806290420ED002F56D
:1023E000806290420CD002F5806290420AD002F5E1
:1023F000806290423FF449AF072249E7012247E754
:10240000022245E7032243E702B0F0BC7047704761
:1024100000380140003C014000380240000002400A
:1024200012B9090481617047816170477047FEE706
:10243000FEE7FEE7FEE770477047704708B5FFF715
:1024400047F8FEF722FFFFF7B5FDFFF7ADFE08BD29
:10245000494B5A6822F440325A605A6841680A432C
:102460005A600268536823F48073536002685368AB
:10247000016943EA012353600268536823F0407303
:1024800053600268536881680B4353600268936825
:1024900023F40063936002689368C1680B43936000
:1024A000826A364B9A4249D00268936823F070637F
:1024B000936002689368816A0B4393600268936833
:1024C00023F04053936002689368C16A0B439360A2
:1024D0000268936823F0020393600268936881693D
:1024E00043EA41039360036A002B32D102685368C8
:1024F00023F4006353600268D36A23F47003D36249
:102500000168CB6AC269013A43EA0253CB620268AE
:10251000936823F40073936002689368016B43EA45
:10252000412393600268936823F480639360026898
:102530009368416943EA8123936070470268936816
:1025400023F0706393600268936823F040539360B4
:10255000BEE70268536843F400635360026853683F
:1025600023F46043536001684B68426A013A43EACE
:1025700042334B60BFE700BF002301400100000F62
:1025800030B310B50446036C43B1236C13F0100F45
:102590000AD00120002384F83C3010BD436480F849
:1025A0003C3000F013FAF0E7236C23F4885323F057
:1025B000020343F0020323642046FFF749FF002093
:1025C0006064236C23F0030343F001032364E1E719
:1025D0000120704782B00023019390F83C30012B1A
:1025E00063D0012380F83C3003689A6812F0010F31
:1025F00013D19A6842F001029A60304B1B68304A4E
:10260000A2FB03239B0C03EB4303019302E0019B1A
:10261000013B0193019B002BF9D10268936813F0F1
:10262000010F44D0036C23F4E06323F0010343F46F
:1026300080730364536813F4806F05D0036C23F434
:10264000405343F480530364036C13F4805F19D048
:10265000436C23F006034364002380F83C306FF0A2
:1026600022031360174B5B6813F01F0F0DD1036833
:102670009A6812F0405F1DD19A6842F080429A60D9
:10268000002015E000234364E6E703680E4A934206
:1026900001D000200CE09A6812F0405F0CD19A68DB
:1026A00042F080429A60002002E0022000E0002018
:1026B00002B070470020FBE70020F9E70C00002083
:1026C00083DE1B43002301400020014090F83C3092
:1026D000012B19D0012380F83C300268936823F065
:1026E0000103936003689B6813F0010F07D1036C2B
:1026F00023F4885323F0010343F001030364002310
:1027000080F83C30184670470220704703689A688A
:1027100012F4806F03D09B6813F4807F1CD170B5D6
:102720000D460446FEF7E0FE064623681A6812F0DE
:10273000020F1AD1B5F1FF3FF7D025B1FEF7D4FE55
:10274000801BA842F1D9236C43F0040323640023C7
:1027500084F83C3003202DE0036C43F02003036435
:10276000002380F83C30012070476FF012021A609D
:10277000236C43F40073236423689A6812F0405F6B
:1027800017D1A269BAB9DA6A12F4700F03D09B6844
:1027900013F4806F11D1236C23F480732364236CB2
:1027A00013F4805F0BD1236C43F0010323640020FA
:1027B00000E0002070BD0020FCE70020FAE70020C8
:1027C000F8E70368D86C704730B482B000230193F7
:1027D00090F83C30012B00F0B580012380F83C30AC
:1027E0000B68092B3ED90568EA689BB203EB4303EB
:1027F0001E3B072404FA03F322EA0303EB60056897
:10280000EA688C680B8803EB43031E3B04FA03F36E
:102810001343EB604B68062B3AD805686A6B03EBF1
:102820008303053B1F2404FA03F322EA03036B63CB
:1028300005686A6B4B6803EB8303053B0C8804FA5D
:1028400003F313436B6302683F4B9A4250D0026814
:102850003D4B9A4255D0002380F83C30184602B0D8
:1028600030BC704705682A699BB203EB4303072419
:1028700004FA03F322EA03032B6105682A698C68D2
:102880000B8803EB430304FA03F313432B61C1E703
:102890000C2B16D805682A6B03EB8303233B1F24FC
:1028A00004FA03F322EA03032B6305682A6B4B68DF
:1028B00003EB8303233B0C8804FA03F313432B63DA
:1028C000C1E70568EA6A03EB8303413B1F2404FA6E
:1028D00003F322EA0303EB620568EA6A4B6803EB41
:1028E0008303413B0C8804FA03F31343EB62AAE72A
:1028F0000B68122BABD1154A536843F48003536025
:10290000A5E70B68124A934201D0112BA3D10F4ABD
:10291000536843F4000353600A680D4B9A429AD1FE
:102920000C4B1B680C4AA2FB03239B0C03EB830399
:102930005A00019202E0019B013B0193019B002B95
:10294000F9D188E702208AE70020014000230140F6
:10295000120000100C00002083DE1B4300B585B080
:102960001648174B03604FF48033436000238360A5
:10297000036183610362C362124A8262C3600122FF
:10298000C26103634261FFF7FBFD68B9092300934D
:10299000012301930023029369460848FFF714FFBF
:1029A00038B905B05DF804FB56210748FEF7C6FDAF
:1029B000ECE760210448FEF7C1FDF2E7A003002028
:1029C000002001400100000F2062000802680F4B48
:1029D0009A4200D0704700B587B00021009103F5FE
:1029E0008C335A6C42F480725A645B6C03F48073CB
:1029F0000093009B0223019303230293039101A9F7
:102A00000348FFF73BFC07B05DF804FB00200140E2
:102A10000004024038B50F4C2046FFF7DBFD64216F
:102A20002046FFF773FE2046FFF7CBFE05B2204697
:102A3000FFF74CFE07EE905AF8EEE77A9FED067A24
:102A400087EE870A30EE000ADFED047A20EE270ACF
:102A500038BD00BFA003002000F07F453333534052
:102A600010B52DED028B00249FED178A04E0FFF7CF
:102A7000D1FF38EE008A0134092CF8DDF2EE047A39
:102A8000C8EE278A18EE900AFDF766FD02460B464F
:102A90000E4801F0F5FBDFED0E7AF4EEE78AF1EE79
:102AA00010FA0ED50F2000F079F84FF4FA70FEF707
:102AB00021FD002000F072F84FF4FA70FEF71AFDC5
:102AC000F0E7BDEC028B10BD000000002C62000896
:102AD000666666402DE9F04188B0002400942B4BD7
:102AE0001A6B42F004021A631A6B02F0040200929D
:102AF000009A01941A6B42F001021A631A6B02F0F9
:102B000001020192019A02941A6B42F002021A63C6
:102B10001B6B03F002030293029BDFF87C802246CA
:102B20004FF440414046FFF77BFC194F224647F6E1
:102B300001013846FFF774FC164E224641F241115E
:102B40003046FFF76DFC4FF4404303930125049595
:102B50000594069403A94046FFF790FB47F601034E
:102B6000039304950594069403A93846FFF786FB62
:102B700041F24113039304950594069403A930464A
:102B8000FFF77CFB08B0BDE8F08100BF00380240D1
:102B900000000240000402400008024038B504462C
:102BA00080F001020F4D02F001024FF480412846EF
:102BB000FFF736FCE443C4F340024FF400512846CB
:102BC000FFF72EFCC4F380024FF400612846FFF7A4
:102BD00027FCC4F3C0024FF480512846FFF720FCC5
:102BE00038BD00BF00000240002800F0BB8170B576
:102BF00082B00446036813F0010F3BD0A74B9B68DB
:102C000003F00C03042B2CD0A44B9B6803F00C03A3
:102C1000082B21D06368B3F5803F4FD0B3F5A02FC8
:102C200052D09E4B1A6822F480321A601A6822F43D
:102C300080221A606368002B50D0FEF755FC0546D1
:102C4000964B1B6813F4003F14D1FEF74DFC401B5C
:102C50006428F5D903208AE1904B5B6813F4800F58
:102C6000D8D08E4B1B6813F4003F03D06368002B51
:102C700000F07A81236813F0020F55D0874B9B68D0
:102C800013F00C0F3ED0854B9B6803F00C03082B10
:102C900033D0E368002B68D0814B01221A60FEF725
:102CA00023FC05467D4B1B6813F0020F54D1FEF741
:102CB0001BFC401B0228F5D9032058E1774A136812
:102CC00043F480331360B5E7744B1A6842F48022F2
:102CD0001A601A6842F480321A60ABE7FEF704FC0F
:102CE00005466E4B1B6813F4003FC3D0FEF7FCFB98
:102CF000401B6428F5D9032039E1684B5B6813F465
:102D0000800FC6D1654B1B6813F0020F04D0E36837
:102D1000012B01D001202AE1604A136823F0F80357
:102D2000216943EAC1031360236813F0080F40D000
:102D3000636963B35B4B01221A60FEF7D5FB05465E
:102D4000564B5B6F13F0020F33D1FEF7CDFB401BE8
:102D50000228F5D903200AE1504A136823F0F8034A
:102D6000216943EAC1031360DEE74D4B00221A607C
:102D7000FEF7BAFB0546494B1B6813F0020FD3D090
:102D8000FEF7B2FB401B0228F5D90320EFE0454BCC
:102D900000221A60FEF7A8FB0546404B5B6F13F05C
:102DA000020F06D0FEF7A0FB401B0228F5D9032036
:102DB000DDE0236813F0040F79D0384B1B6C13F05F
:102DC000805F33D100230193344B1A6C42F0805260
:102DD0001A641B6C03F080530193019B0125324B55
:102DE0001B6813F4807F23D0A368012B34D0052BFC
:102DF00038D02A4B1A6F22F001021A671A6F22F09C
:102E000004021A67A368002B36D0FEF76DFB064656
:102E1000224B1B6F13F0020F48D1FEF765FB801B9E
:102E200041F288339842F3D90320A0E00025D6E789
:102E30001D4A136843F480731360FEF755FB064682
:102E4000194B1B6813F4807FCED1FEF74DFB801B1E
:102E50000228F5D903208AE0104A136F43F00103DA
:102E60001367CFE70D4B1A6F42F004021A671A6F0F
:102E700042F001021A67C5E7FEF736FB0646074B2C
:102E80001B6F13F0020F11D0FEF72EFB801B41F2D7
:102E900088339842F3D9032069E000BF003802402C
:102EA00000004742800E474200700040E5B9A36928
:102EB000002B5BD0304A926802F00C02082A58D0EE
:102EC000022B17D02D4B00221A60FEF70DFB044693
:102ED000294B1B6813F0007F42D0FEF705FB001B57
:102EE0000228F5D9032042E0234A136C23F08053D3
:102EF0001364DCE7214B00221A60FEF7F5FA054661
:102F00001D4B1B6813F0007F06D0FEF7EDFA401B47
:102F10000228F5D903202AE0E369226A1343626A92
:102F200043EA8213A26A5208013A43EA0243E26A80
:102F300043EA0263104A5360104B01221A60FEF705
:102F4000D3FA04460C4B1B6813F0007F06D1FEF742
:102F5000CBFA001B0228F5D9032008E0002006E088
:102F6000002004E001207047012000E0002002B0B2
:102F700070BD0120FBE700BF0038024060004742FF
:102F8000264B9B6803F00C03042B44D0082B01D084
:102F9000234870472DE9F04B204B5A6802F03F025E
:102FA0005B6813F4800F13D01C4B5968C1F3881170
:102FB00000231C48A1FB0001FDF7FEFD174B5B68D9
:102FC000C3F3014301335B00B0FBF3F0BDE8F08BCA
:102FD000124B5B68C3F388131E4600275C01002573
:102FE000E41A65EB0705A90141EA9461A001001B01
:102FF00061EB0501CB0043EA5073C400A01943EB19
:1030000007018B0243EA90538402204619460023AD
:10301000FDF7D2FDD2E70348704700BF00380240F9
:103020000024F40040787D01002800F09D8070B5F8
:1030300004464F4B1B6803F00F038B4209D2CBB2FF
:103040004B4A1370136803F00F038B4201D0012029
:1030500070BD236813F0020F17D013F0040F04D0D3
:10306000444A936843F4E0539360236813F0080FD5
:1030700004D0404A936843F4604393603D4A9368A8
:1030800023F0F003A068034393600D46236813F018
:10309000010F32D06368012B21D09A1E012A25D955
:1030A000344A126812F0020F60D032498A6822F066
:1030B000030213438B60FEF717FA06462D4B9B68FD
:1030C00003F00C036268B3EB820F16D0FEF70CFA24
:1030D000801B41F288339842F0D90320B8E7254A93
:1030E000126812F4003FE0D10120B1E7214A1268D2
:1030F00012F0007FD9D10120AAE71D4B1B6803F015
:103100000F03AB4209D9EAB2194B1A701B6803F0DE
:103110000F03AB4201D001209AE7236813F0040F9C
:1031200006D0144A936823F4E053E1680B4393609C
:10313000236813F0080F07D00E4A936823F4604306
:10314000216943EAC1039360FFF71AFF094B9B68AB
:10315000C3F30313084AD35CD840084B186000201F
:10316000FEF776F9002073E70120704701206FE732
:10317000003C024000380240086200080C000020B9
:10318000014B1868704700BF0C00002008B5FFF71E
:10319000F7FF044B9B68C3F38223034AD35CD840F8
:1031A00008BD00BF003802401862000808B5FFF7EC
:1031B000E7FF044B9B68C3F34233034AD35CD84018
:1031C00008BD00BF0038024018620008F8B5054687
:1031D0000F4616461C463BE02CB1FEF785F9069BD0
:1031E000C01AA04234D32A68536823F0E003536026
:1031F0006B68B3F5827F0BD0AB6AB3F5005F14D078
:10320000012385F85130002385F85030032027E052
:10321000AB68B3F5004F02D0B3F5806FECD12A68EC
:10322000136823F040031360E6E72A68136823F469
:1032300000531B041B0C13602A68136843F40053EB
:103240001360DDE70123B34209D0B4F1FF3FC3D1DE
:103250002B689B6837EA0303F4D00023F3E70020D0
:10326000F8BD10B582B0044600920B4600228021C2
:10327000FFF7ACFF034610B9184602B010BD636DEE
:1032800043F0200363650323F6E700283BD010B525
:1032900004460023836290F85130002B2ED0022385
:1032A00084F851302268136823F040031360636888
:1032B000A2681343E268134322691343626913430C
:1032C000A26902F400721343E2691343226A1343B2
:1032D000A16A22680B431360638B03F00403616AE5
:1032E00022680B4353602268D36923F40063D361DF
:1032F00000206065012384F8513010BD80F8503003
:10330000FEF7DAFCCBE7012070472DE9F04184B0ED
:103310001E4690F85030012B00F0C88004460D4640
:103320009046012380F85030FEF7DEF8074694F807
:103330005130DBB2012B0AD00223012284F8512044
:10334000002284F85020184604B0BDE8F081002D1A
:1033500000F0A480B8F1000F00F0A280032384F8ED
:103360005130002363652563A4F83480A4F83680C7
:10337000A363A387E38763642364A368B3F5004F63
:103380001BD023681A6812F0400F03D11A6842F06C
:1033900040021A60E368B3F5006F14D063681BB194
:1033A000E38E9BB2012B3ED1236815F8012B1A73D3
:1033B000E38E013B9BB2E38635E02268136843F459
:1033C00080431360DDE763681BB1E38E9BB2012B82
:1033D0000DD1236835F8022BDA60E38E013B9BB2F6
:1033E000E38604E0002E5DD0B6F1FF3F0FD1E38EFF
:1033F0009BB27BB323689A6812F0020FF2D035F8C3
:10340000022BDA60E38E013B9BB2E386EFE7FEF727
:103410006BF8C01BB042EAD303238EE7002E43D0E3
:10342000B6F1FF3F0FD1E38E9BB29BB123689A6840
:1034300012F0020FF2D015F8012B1A73E38E013B44
:103440009BB2E386EFE7FEF74FF8C01BB042EAD32A
:10345000032372E700973346012202212046FFF73B
:10346000B5FE08B1032368E73A4631462046FFF728
:10347000F8FE034618B12023636501235DE7A268C7
:1034800032B903922268D168039192680392039A39
:10349000626D002A3FF451AF01234EE701234CE750
:1034A00001234AE7032348E7032346E702234AE7C9
:1034B0002DE9F04385B099460C9D90F85030012BD2
:1034C00000F0108104460F461646012380F8503064
:1034D000FEF70AF8804694F85130DBB26268012B9F
:1034E00015D0B2F5827F0AD00223012284F8512040
:1034F000002284F85020184605B0BDE8F083A26889
:10350000002A40F0E780042B01D00223EDE7002FD2
:1035100000F0E280002E00F0E180B9F1000F00F031
:10352000DF8094F85130DBB2012B2BD00023636590
:10353000A663A4F83E90A4F83C902763A4F83690C4
:10354000A4F834902364636423681A6812F0400F6F
:1035500003D11A6842F040021A60E368B3F5006FC5
:1035600014D063681BB1E38E9BB2012B07D1236893
:1035700017F8012B1A73E38E013B9BB2E3864FF0E1
:10358000010961E0052384F85130CFE763681BB17E
:10359000E38E9BB2012B07D1236837F8022BDA6048
:1035A000E38E013B9BB2E3864FF0010913E0E38F0A
:1035B0009BB26BB123689A6812F0010F08D0DB68E8
:1035C00026F8023BE38F013B9BB2E3874FF00109F2
:1035D000B5F1FF3F1CD1E38E9BB21BB9E38F9BB2C9
:1035E000002B55D0B9F1000FE1D0E38E9BB2002B38
:1035F000DDD023689A6812F0020FD8D037F8022B7A
:10360000DA60E38E013B9BB2E3864FF00009CEE720
:10361000FDF76AFFA0EB0800A842DCD3032364E7B0
:10362000E38F9BB26BB123689A6812F0010F08D048
:10363000DB683370E38F013B9BB2E38701364FF0C9
:103640000109B5F1FF3F1BD1E38E9BB213B9E38FA4
:103650009BB2EBB1B9F1000FE2D0E38E9BB2002B2D
:10366000DED023689A6812F0020FD9D03A781A7324
:10367000E38E013B9BB2E38601374FF00009CFE7B1
:10368000FDF732FFA0EB0800A842DDD303232CE7AF
:10369000CDF800802B46012202212046FFF796FD3F
:1036A00008B1032321E7424629462046FFF7D9FD0A
:1036B000034618B120236365012316E7A268002A98
:1036C0007FF413AF03922268D1680391926803924A
:1036D000039A0AE7022308E7012306E7012304E728
:1036E000012302E7022306E72DE9F04182B00446F8
:1036F0000D4617461E464368B3F5827F19D094F8ED
:103700005030012B00F0A280012384F85030FDF7E7
:10371000EBFE804694F85130DBB2012B15D002202D
:10372000012384F85130002384F8503002B0BDE802
:10373000F0818368002BE2D1042380F85130009699
:1037400013460A46FFF7B4FEF0E7002D74D0002FB1
:1037500074D0042384F8513000236365A563A787E0
:10376000E7872363A386E38623646364A368B3F5D2
:10377000004F0BD023681A6812F0400F03D11A686B
:1037800042F040021A60E3685BB128E022681368E7
:1037900023F480431360EDE7002E51D0B6F1FF3FD4
:1037A00010D1E38F9BB2002B31D023689A6812F0BE
:1037B000010FF1D01B7B05F8013BE38F013B9BB26E
:1037C000E387EEE7FDF790FEA0EB0800B042E8D3F8
:1037D0000320A5E7002E35D0B6F1FF3F0FD1E38FD0
:1037E0009BB2A3B123689A6812F0010FF2D0DB6894
:1037F00025F8023BE38F013B9BB2E387EFE7FDF740
:1038000073FEA0EB0800B042E9D3032088E76368A9
:10381000B3F5827F03D0636DB3B9002080E7A3685E
:10382000B3F5004F02D0B3F5806FF4D1226813686E
:1038300023F040031360EEE7012071E701206FE7FA
:1038400003206DE703206BE7012069E702206DE7A5
:1038500070B50D461646002404E0AFF300802870D2
:1038600001340135B442F8DB304670BD70B5164600
:10387000002405E04D1C0878FDF750FE0134294670
:10388000B442F7DB304670BD08B503460B4A1268F8
:1038900042B10A4A106803446A46934206D8074A6E
:1038A000136008BD054A06491160F2E700F05AF8B6
:1038B0000C2303604FF0FF30F3E700BF0402002049
:1038C000C01A00204FF0FF3070474FF400534B6098
:1038D00000207047012070470020704708B50A4B50
:1038E0001B680021986800F0E3FC084B00221A7066
:1038F000FEF7B0FAFFF7B4F84FF47A70FDF7FAFD6F
:10390000FEF70EFB08BD00BF100000208A06002055
:10391000DFF834D0002103E00C4B5B5843500431F6
:103920000B480C4B42189A42F6D30B4A02E0002394
:1039300042F8043B094B9A42F9D3FEF779FC00F0B8
:1039400017F8FDF75BFE70470000022010650008C5
:1039500000000020E0010020E0010020C01A00204B
:10396000FEE70000014B1868704700BF1000002000
:1039700070B50D4E0D4CA41BA4100025A54209D115
:103980000B4E0C4C02F0FCFBA41BA4100025A5421E
:1039900005D170BD56F8253098470135EEE756F849
:1039A000253098470135F2E70865000808650008EA
:1039B000086500080C65000802440346934200D1E4
:1039C000704703F8011BF9E72DE9FF4755EC104B51
:1039D0000D9FDDF830A0002D0E4691461946B8BF68
:1039E00022462B4627F02007BBBF05F100431D46AA
:1039F00000232D23B8BF1446462F0B7004D0452F4B
:103A000000D10136022100E0032103AB019302AB98
:103A100000933246534645EC104B00F08DFD472F86
:103A2000804602D119F0010F26D0462F08EB060977
:103A300011D198F80030302B0AD100220023204603
:103A40002946FDF749F818B9C6F10106CAF8006021
:103A5000DAF8003099440022002320462946FDF779
:103A60003BF838B93022039B4B4505D2591C0391D2
:103A70001A70F8E7CDF80C90039B0E9AA3EB08039D
:103A80004046136004B0BDE8F087F7B5002904464E
:103A9000BABF49422D232B23092904F8022B437076
:103AA00020DD0DF107031F460A2691FBF6F506FB04
:103AB00015113031092D03F8011C03F1FF3229469D
:103AC00009DC3031023B02F8011CBB42224604D320
:103AD000101A03B0F0BD1346E7E713F8012B04F802
:103AE000012BF2E7302319448370021DC170EFE708
:103AF0002DE9F04F8DB00C46DDF8588016461F4674
:103B0000054601F04BFC036804931846FCF768FB7C
:103B100000230A93D8F800300590073323F00703F9
:103B200003F1080294F818A0D4F800B0C8F80020F7
:103B3000D3E90023C4E91223D4E9128929F0004310
:103B40000793CDF818804FF0FF32A74BDDE906014F
:103B5000FCF7F4FF70BB4FF0FF32A34BDDE9060129
:103B6000FCF7CEFF30BB0022002340464946FCF75D
:103B7000BDFF10B12D2384F843309C4A9C4BBAF111
:103B8000470F8CBF9046984603232BF00402236115
:103B900022604FF00009009733460BAA21462846C1
:103BA00000F0E6F9013040F08D804FF0FF300DB0AD
:103BB000BDE8F08F42464B4640464946FCF7BEFF03
:103BC00010B18C4A8C4BDAE761684B1C4BF4806275
:103BD0000AA83ED1062363600023CDE9020309ABA6
:103BE000009349EC108B0DF123032260CDF804A063
:103BF00061682846FFF7E8FE0AF0DF03472B80469E
:103C000009D1099BD81C02DB6268934247DDAAF107
:103C1000020A5FFA8AFABAF1650F099924D80139C4
:103C2000524604F150000991FFF72FFF0A9A13182A
:103C3000012A8146236102DC2268D10701D50133C4
:103C400023619DF82330002BA5D02D2384F8433029
:103C5000A1E7BAF1670F00F07781BAF1470FBBD146
:103C60000029B9D10123B6E7BAF1660F19D10029AD
:103C700063680CDD216113B92268D20702D50133D4
:103C80000B442361099BA3654FF00009D9E713B9E1
:103C90002268D00701D50233F3E70123F1E74FF0A3
:103CA000670ADDE90932934205DB22682361D10707
:103CB000E8D50133E5E7002BD4BFC3F102030123AC
:103CC0001344DEE723685A0507D423694246314688
:103CD0002846B84701302BD167E7BAF1650F40F2AB
:103CE000DC8000220023D4E91201FCF7F5FE002855
:103CF00033D00123414A31462846B84701303FF4CA
:103D000054AFDDE909239A4202DB2368D8070FD5B7
:103D1000DDE9042331462846B84701303FF445AF7A
:103D20004FF0000804F11A090A9B013B434509DCE6
:103D300023689B0700F10381E0680B9B9842B8BFA2
:103D4000184634E701234A4631462846B847013031
:103D50003FF42BAF08F10108E6E7099B002B2BDCB1
:103D60000123264A31462846B84701303FF41DAFAB
:103D7000099B23B90A9B13B92368D907D8D5DDE974
:103D8000042331462846B84701303FF40EAF4FF0C8
:103D9000000904F11A0A099B5B424B4501DC0A9BAE
:103DA00094E70123524631462846B84701303FF494
:103DB000FCAE09F10109EEE70A9AA36D9A42A8BF89
:103DC0001A46002A914607DD1346314642462846E8
:103DD000B84701303FF4E9AE04F11A034FF0000B8D
:103DE00029EAE979069315E0FFFFEF7F48620008B2
:103DF00044620008506200084C62000854620008E7
:103E00000123069A31462846B84701303FF4CDAE2B
:103E10000BF1010BD4F858A0AAEB09035B45EFDCCA
:103E2000DDE909239A42D04415DB2368DA0712D46E
:103E30000A9B0999A3EB0A02A3EB010A9245A8BFCA
:103E40009246BAF1000F0EDC4FF000082AEAEA7A37
:103E500004F11A0919E0DDE9042331462846B84780
:103E60000130E5D1A1E65346424631462846B847DF
:103E70000130E9D199E601234A4631462846B84740
:103E800001303FF492AE08F10108DDE909239B1AE5
:103E9000A3EB0A034345EEDC4AE70A9A012A01DC58
:103EA000DB073AD50123424631462846B847013060
:103EB0003FF47BAEDDE9042331462846B8470130A4
:103EC00008F101083FF471AE0A9B002203F1FF3AAA
:103ED000D4E912010023FCF7FFFDC8B9534642465E
:103EE00031462846B84701300ED15EE601235246DE
:103EF00031462846B84701303FF457AE08F1010873
:103F00000A9B013B4345F1DC4B4604F15002DEE6DF
:103F10004FF0000804F11A0AF2E70123DFE701235A
:103F20004A4631462846B84701303FF43EAE08F1D4
:103F30000108E3680B9A9B1A4345F0DCFCE64FF05E
:103F4000000804F11909F4E700293FF48BAE0023BF
:103F5000CDE9020309AB009349EC108B2260CDF848
:103F600004A00DF123032846FFF72EFD804648E606
:103F70002DE9F04791461F468A680B69DDF82080DD
:103F80009342B8BF1346C9F8003091F84320064663
:103F90000C4612B10133C9F800302368990642BFBC
:103FA000D9F800300233C9F80030256815F006054D
:103FB00007D104F1190AE368D9F800209B1AAB4233
:103FC00028DC94F843302268003318BF012392069E
:103FD0002DD404F1430239463046C047013020D089
:103FE0002368E568D9F8002003F00603042B08BF16
:103FF000AD1AA36822690CBF25EAE5750025934236
:10400000C4BF9B1AED184FF000091A344D451AD160
:10401000002008E00123524639463046C0470130AF
:1040200003D14FF0FF30BDE8F0870135C3E7E11859
:104030005A1C302081F84300224494F8451082F83D
:1040400043100233C5E70123224639463046C047B4
:104050000130E6D009F10109D8E700002DE9F0436D
:1040600001F1430C0C46097E85B06E2917460646C1
:1040700098460C9A00F0B38022D8632936D00AD82B
:10408000002900F0B980582900F0838004F142052E
:1040900084F8421032E0642901D06929F6D1206801
:1040A0001368050603F104012AD51B681160002B73
:1040B00003DA2D225B4284F843206F480A2239E05C
:1040C000732900F09D8008D86F2920D07029DDD198
:1040D000236843F02003236003E0752917D0782973
:1040E000D4D1782384F84530644855E01368191D0D
:1040F0001B68116004F1420584F8423001238CE012
:104100001B68116010F0400F18BF1BB2CFE7136897
:104110002568181D1060280601D51B6802E0680696
:10412000FBD51B8854486F2914BF0A22082200219E
:1041300084F843106568A560002DC0F29580216861
:1041400021F004012160002B3DD1002D40F08E8034
:104150006546082A0BD12368DB0708D52369626806
:104160009A42DEBF302305F8013C05F1FF35ACEB88
:1041700005032361CDF800803B4603AA2146304663
:10418000FFF7F6FE01304DD14FF0FF3005B0BDE82E
:10419000F083394884F84510136821681D1D1B6899
:1041A00015600A060BD5CA0744BF41F02001216003
:1041B0001BB9226822F0200222601022B7E74D06C8
:1041C00048BF9BB2EFE76546B3FBF2F102FB113348
:1041D000C35C05F8013D0B460029F5D1B9E713682A
:1041E00025686169181D106028061B6801D51960D3
:1041F00002E06A06FBD51980002323616546B9E712
:104200001368191D11601D68626800212846FBF7BC
:10421000EFFF08B1401B606063682361002384F8EE
:104220004330A7E723692A4639463046C047013064
:10423000AAD023689B0713D4E068039B9842B8BFB9
:104240001846A3E701234A4639463046C0470130A5
:104250009AD00135E368039A9B1AAB42F2DCEBE794
:10426000002504F11909F5E7002BACD1037884F897
:10427000423004F142056CE75662000867620008AC
:104280000FB40A4B13B51C6824B1A36913B92046B7
:1042900000F0FAFF05AB049AA1680193204601F0F3
:1042A000BDFC02B0BDE8104004B070471000002013
:1042B00000294FF480630CBF0222002200F000B8F6
:1042C0002DE9F7431D46514B1E6804460F469046A4
:1042D00026B1B36913B9304600F0D6FF4C4B9C426F
:1042E00052D17468B8F1020F06D0B8F1010F00F294
:1042F0008980002DC0F286802146304600F05AFFAA
:10430000616B41B104F14403994202D0304601F09F
:10431000B3FB002363630023A3616360A3891B06CF
:1043200003D52169304601F0A7FBA38923F44A6332
:1043300023F00303B8F1020FA3815DD001AB6A46FD
:104340002146304601F038F8A3891843A0812DBBDF
:10435000009D284601F094F8074600284ED1DDF86C
:104360000090A9453CD14FF0FF30A38943F00203F0
:10437000A3810023A36004F1470323602361012389
:10438000636103B0BDE8F083224B9C4201D1B46865
:10439000A8E7214B9C4208BFF468A3E7002FD8D0C0
:1043A000B36913B9304600F06FFFB8F1010F08BFD1
:1043B000A389276004BF43F00103A381A38913F0FD
:1043C0000800C4E904751BD013F0010018BF6D424A
:1043D0004FF000031DBFA360A5611846A560D0E79C
:1043E000484601F04DF807460028BCD0A38943F0A9
:1043F0008003A3814D46D3E70020B6E7A946F5E741
:10440000A060BEE74FF0FF30BBE700BF1000002008
:10441000A8620008C8620008886200082DE9F74F0A
:1044200003690C69A3428046C0F28280013C01F11D
:1044300014074FEA840C00F1140657F8245056F87C
:10444000240006EB0C03013507EB0C090193B0FBCC
:10445000F5F595B34FF0000A3846B646D34650F806
:10446000042B93B205FB03A34FEA134A9BB2ABEBB9
:104470000303120CDEF800B005FB02A213FA8BF363
:104480004FEA124A1FFA82FBDEF80020CBEB124201
:1044900002EB23429BB243EA024381454FEA224B9F
:1044A0004EF8043BDBD256F80C3033B9019B043B89
:1044B0009E421A4630D3C8F81040404601F008FA30
:1044C000002825DB013530464FF0000C57F8042B4F
:1044D000D0F800E093B2ACEB0303120C13FA8EF3A6
:1044E000C2EB1E4202EB23429BB243EA0243B945B0
:1044F0004FEA224C40F8043BE8D256F8242006EB61
:1045000084032AB9043B9E421A460BD3C8F81040D4
:10451000284603B0BDE8F08F1268043B002ACAD1D8
:10452000013CC5E71268043B002AEFD1013CEAE7F1
:104530000020EEE7000000002DE9F04F57EC106B73
:1045400097B0456A069104460B921293DDF880807D
:10455000CDE900673DB9102000F092FF6062C0E92C
:1045600001550560C560636A196851B15A684A60AF
:10457000012393408B60204600F0C9FF636A00224C
:104580001A603B1EBBBF23F00043019300230122AE
:10459000ACBFC8F80030C8F80020AF4BDDF804808D
:1045A00033EA080314D1129A42F20F731360009B8E
:1045B00023B9C8F31300002800F04285219BDFF8DF
:1045C000ACB2002B00F044850BF1030300F03EBDBC
:1045D000DDE900670022002330463946FCF77CFA0B
:1045E000814668B1129A01231360219B002B00F0D1
:1045F00024859A4B219A03F1FF3B136000F028BDFC
:1046000014AA15A947EC106B204601F0D8F9C8F39D
:104610000A550490002D7CD0C7F3130343F07F5B51
:10462000B2464BF4401BA5F2FF35CDF84C9000226A
:104630008B4B50465946FBF72FFE81A3D3E900234D
:10464000FBF7E2FF80A3D3E90023FBF727FE064632
:1046500028460F46FBF76EFF7DA3D3E90023FBF747
:10466000D3FF02460B4630463946FBF717FE064697
:104670000F46FCF779FA002282460023304639467D
:10468000FCF734FA48B15046FBF754FF32463B463C
:10469000FCF722FA08B90AF1FF3ABAF1160F59D815
:1046A000704901EBCA01DDE90023D1E90001FCF703
:1046B0003BFA002850D00AF1FF3A00230F93149BD5
:1046C0005D1BB5F1010849BFC5F101030023059346
:1046D0004FF0000858BF0593BAF1000F3EDB0023EE
:1046E000D044CDF838A00793069B092B00F29080A8
:1046F000052BC4BF043B0693069BA3F10203CCBF6A
:1047000000250125032B00F28F80DFE803F07D7F79
:104710003171DDE914531D4405F23240202813DDC8
:10472000C0F14000009B08FA00F805F2124023FA9D
:1047300000F048EA0000FBF7EDFE01238246A1F1FC
:10474000F87B013D139372E7009BC0F1200003FA50
:1047500000F0F0E70123B1E70F90B0E7059BA3EB72
:104760000A030593CAF10003079300230E93BBE7E6
:1047700001230A930B9B002B59DD02939946666A2D
:1047800000227260042202F114009842716853D929
:10479000204600F088FE636A3060B9F10E0FD3F84E
:1047A00000B000F2E680002D00F0E3809DED007B7C
:1047B000BAF1000F8DED107B74DD2A4A0AF00F0369
:1047C00002EBC30393ED007B4FEA2A16F0068DED52
:1047D000087B65D5244BDDE91001D3E90823FCF7FC
:1047E0003DF8CDE9000106F00F0603251E4F4CE011
:1047F00001230A930B9B534403F1010902934B4697
:10480000012BB8BF0123BAE70023B2E70023F0E78A
:104810000125002306930A954FF0FF330293994632
:10482000002212230B92AAE701230A93F4E7012343
:10483000029399461A46F5E7013171605200A2E7EA
:1048400061436F63A787D23FB3C8608B288AC63F96
:10485000FB799F501344D33F0000F07F556200085E
:104860000000F83F10630008E86200088162000859
:10487000F10708D5DDE90801D7E90023FBF7C4FEFD
:10488000CDE90801013576100837002EF0D1DDE9B9
:104890000823DDE90001FBF7E1FFCDE900011AE0A3
:1048A0000225A3E700F0A080CAF100069F4BA04FAD
:1048B00006F00F0203EBC203D3E90023DDE9100188
:1048C000FBF7A2FECDE90001361100230225002EE0
:1048D0007FD1002BE1D10F9B002B00F08780DDE919
:1048E00000670022934B30463946FCF7FFF800285A
:1048F0007CD0B9F1000F79D0029B002B35DD0AF195
:10490000FF330893394600228B4B3046FBF77CFE81
:10491000CDE90001029F01352846FBF70BFEDDE9DA
:104920000023FBF771FE0022844BFBF7B7FC054622
:10493000A1F15076002F5DD10022814BDDE900010D
:10494000FBF7AAFC2A463346CDE90001FCF7ECF858
:10495000002840F088822A4606F10043DDE9000184
:10496000FCF7C4F8002840F07C82DDE91023CDE993
:104970000023159B002BC0F25081BAF10E0F00F3FB
:104980004C816A4B03EBCA0393ED007B0B9B002B1E
:104990008DED027B80F2D880B9F1000F00F3D48056
:1049A00040F05E820022664B51EC170BFBF72CFEA9
:1049B000DDE90023FCF7AEF84F464E46002840F0F4
:1049C000348231230BF101058BF800300AF1010A22
:1049D0002FE2F20705D5D7E90023FBF715FE0135D5
:1049E00001237610083772E7022574E7CDF820A07E
:1049F0004F4691E74D4B03EBC70353E902010A9B76
:104A0000002B47D002460B4600204E49FBF726FFFD
:104A10002A463346FBF740FCCDE90C015D46DDE953
:104A20000001FCF7A1F80646FBF784FD02460B46A1
:104A3000DDE90001FBF730FC303605F8016BDDE9FC
:104A40000C23CDE90001FCF751F8002863D1DDE922
:104A5000002300203749FBF71FFCDDE90C23FCF79E
:104A600045F8002840F0B780A5EB0B039F427FF785
:104A70007CAF0022304BDDE90C01FBF7C5FD0022C5
:104A8000CDE90C012C4BDDE90001FBF7BDFDCDE9C3
:104A90000001C4E72A463346FBF7B6FDCDE90C0119
:104AA0000BEB07055E46DDE90001FCF75DF8074604
:104AB000FBF740FD303702460B46DDE90001FBF70E
:104AC000EBFB06F8017BAE42CDE900014FF000029E
:104AD00026D11C4BDDE90C01FBF7E0FB02460B463F
:104AE000DDE90001FCF720F8002874D1DDE90C2392
:104AF00000201449FBF7D0FB02460B46DDE900011C
:104B0000FBF7F4FF00283FF430AF15F8013C302BE1
:104B100005F1FF3202D0DDF820A04AE01546F4E7A7
:104B2000054BFBF771FDCDE90001BCE71063000800
:104B3000E86200080000F03F0000244000001C4034
:104B4000000014400000E03FDDE900675D46DDE95C
:104B5000022330463946FBF781FEFCF705F8804614
:104B6000FBF7E8FCDDE90223FBF74EFD02460B46AE
:104B70003046394608F13006FBF78EFB05F8016B2D
:104B8000A5EB0B06B14502460B4639D1FBF786FB78
:104B9000DDE9022306460F46FBF7C6FFC8B9DDE98B
:104BA000022330463946FBF797FF10B118F0010F8A
:104BB0000FD10499204600F0AAFC0023129A2B7012
:104BC0000AF101031360219B002B00F041821D605C
:104BD0003EE2CDF820A015F8012C392A05F1FF336B
:104BE00008D19B450AD1089B0133089330238BF8E9
:104BF00000305B461A7801321A708CE71D46EAE7EE
:104C000000229B4BFBF700FD0022002306460F46C7
:104C1000FBF762FF00289AD0CBE70A9A002A00F03F
:104C20008B80069A012A6EDC139A002A67D003F261
:104C30003343079F059D059A01211A44204605929A
:104C4000984400F004FD0646002D0CDDB8F1000F7D
:104C500009DD4545059A2B46A8BF4346D21A059261
:104C6000ED1AA8EB0308079BEBB10A9B002B67D05A
:104C70008FB131463A46204600F088FD049A01463D
:104C80000646204600F0ECFC04990890204600F00F
:104C90003EFC089B0493079BDA1B04D00499204632
:104CA00000F074FD04900121204600F0D0FC0E9B22
:104CB0000746002B00F0D0811A460146204600F03E
:104CC00065FD069B012B074640DC009B002B39D17C
:104CD000019BC3F31303002B36D1019B23F0004348
:104CE0001B0D1B052BB1059B0133059308F1010832
:104CF000012307930E9B002B2AD1012030E0149B47
:104D0000C3F1360395E7079B09F1FF37BB42BFBFED
:104D1000079B0797FA1A0E9BBBBF9B180E93DF1BCE
:104D20000027B9F1000FB5BF059B059DA3EB090551
:104D30004B46B8BF00237EE7079F059D0A9E83E789
:104D4000079AABE70023D4E7009BD2E70023079341
:104D50003B6907EB8303186900F02BFCC0F12000CE
:104D6000404410F01F0047D0C0F12003042B3BDD6E
:104D7000059BC0F11C000344059305448044059B3A
:104D8000002B05DD1A460499204600F04DFD0490E5
:104D9000B8F1000F05DD39464246204600F044FDDB
:104DA00007460F9B53B33946049800F091FD002845
:104DB00024DA00230A220499204600F0BFFB0A9B54
:104DC00004900AF1FF3A002B00F04D810023314698
:104DD0000A22204600F0B2FB029B002B06464FDC65
:104DE000069B022B4CDD11E0C9D0059A1C331A44F6
:104DF00005921D449844C2E70346F6E7B9F1000F57
:104E000038DC069B022B35DDCDF80890029B63B998
:104E100039460522204600F091FB014607460498DA
:104E200000F056FD00283FF7CCAD0B9B5D466FEAC6
:104E3000030A4FF000093946204600F068FB002EB7
:104E40003FF4B7AEB9F1000F05D0B14503D04946E4
:104E5000204600F05CFB3146204600F058FBA8E6F7
:104E600000273E46E1E7DDF820A03E46A9E500BF69
:104E7000000024400A9BCDF80890002B00F0FA8037
:104E8000002D05DD31462A46204600F0CDFC0646C1
:104E9000079B002B4CD07168204600F004FB326960
:104EA00002320546920006F10C010C3000F0F0FAD7
:104EB00001222946204600F0B7FC009BCDF814B033
:104EC00003F00103B1460793064639460498FFF7FD
:104ED000A5FA4946054600F13008049800F0F8FCB0
:104EE000324600903946204600F00CFDC368024669
:104EF00003BB01460890049800F0EAFC089A0346B8
:104F000011462046089300F002FB089BA3B9069ABD
:104F100092B9079A82B9B8F1390F29D0009B002BBA
:104F200001DD05F13108059B5D1C83F8008082E7F7
:104F30003046C2E70123E3E7009A002A04DB25D1CB
:104F4000069A1ABB079A0ABB002BECDD01220499D2
:104F5000204600F069FC3946049000F0B9FC0028B6
:104F600003DCE0D118F0010FDDD0B8F1390FD8D152
:104F7000059B059A5D1C3923137015F8013C392BEC
:104F800005F1FF324FD00133137054E7059A002B1F
:104F900002F1010506DDB8F1390FE9D008F1010889
:104FA000059BC2E7029A05F8018CA5EB0B0393421F
:104FB00021D000230A220499204600F0BFFAB1450F
:104FC00004904FF000034FF00A024946204605D1F5
:104FD00000F0B4FA81460646059576E700F0AEFA91
:104FE0003146814600230A22204600F0A7FA0646F1
:104FF000F2E74FF0000901220499204600F014FC6A
:105000003946049000F064FC0028B6DC02D118F0A8
:10501000010FB2D115F8013C302B05F1FF327FF4BE
:105020000AAF1546F6E7934505D131230AF1010A87
:105030008BF80030FFE615469FE7DFF864B007E025
:10504000219BDFF860B01BB10BF10803219A1360BC
:10505000584617B0BDE8F08F069B012B7FF735AEA1
:105060000E9B079349E6029B002B03DC069B022B59
:105070003FF7CCAE5D4639460498FFF7CFF900F113
:10508000300805F8018B029AA5EB0B039A42B0DDBC
:1050900000230A220499204600F050FA0490EAE71F
:1050A00054620008786200088A892DE9F0410546BB
:1050B00010070C4658D44B68002B05DC0B6C002BFA
:1050C00002DC0020BDE8F081E66A002EF9D0002362
:1050D00012F480522F68216A2B6032D0606DA38950
:1050E0005A0705D56368C01A636B0BB1236CC01AED
:1050F00000230246E66A216A2846B047431CA3897A
:1051000006D129681D2948D8294ACA40D60744D55E
:1051100000226260D9042269226004D5421C01D1B8
:105120002B6803B96065616B2F600029C9D004F159
:105130004403994202D0284600F09EFC00206063A0
:10514000C0E701232846B047411CC8D12B68002B7B
:10515000C5D01D2B01D0162B01D12F60B1E7A3893B
:1051600043F04003A381ADE70F69002FA9D0930757
:105170000E6808BF4B690F6018BF0023A6EB070835
:105180008B60B8F1000F9CDD43463A46216AA66A5F
:105190002846B047002806DCA38943F04003A381DA
:1051A0004FF0FF308EE70744A8EB0008E9E700BFA7
:1051B0000100402038B50B6905460C46DBB118B13B
:1051C00083690BB900F060F80C4B9C4209D16C6804
:1051D000B4F90C307BB121462846BDE83840FFF7D2
:1051E00063BF074B9C4201D1AC68F1E7054B9C4281
:1051F00008BFEC68ECE7002038BD00BFA8620008DB
:10520000C862000888620008002310B50446C0E99F
:105210000033836081814366C281C0E904338361C6
:10522000194608225C30FEF7C7FB054B6362054B4D
:10523000A362054BE362054B2462236310BD00BFEC
:10524000655E0008875E0008BF5E0008E35E000838
:10525000014900F085B800BFB551000870B54A1E7D
:10526000682555430E4605F1740100F053FC0446D1
:1052700040B10021C0E900160C30A06005F16802C1
:10528000FEF79AFB204670BD836910B5044633BB18
:10529000C0E912330365124B124A1B6882629842BE
:1052A00004BF0123836100F01FF86060204600F016
:1052B0001BF8A060204600F017F80022E0600421EF
:1052C0006068FFF7A1FF01220921A068FFF79CFF9A
:1052D00002221221E068FFF797FF0123A36110BDAE
:1052E0004062000851520008F8B51B4B1E68B369B4
:1052F000074613B93046FFF7C7FF4836D6E90134F1
:10530000013B03D5336833B13668F7E7B4F90C5085
:105310006DB16834F4E704213846FFF79FFF306031
:105320000028F1D10C233B6004462046F8BD0B4B0E
:105330006566C4E90055A560C4E90335C4E90555AF
:105340000822294604F15C00FEF736FBC4E90D553E
:10535000C4E91255E9E700BF406200080100FFFF01
:105360002DE9F8438046894600F14804002614B927
:105370003046BDE8F883D4E90175013F01D52468C2
:10538000F5E7AB89012B07D9B5F90E30013303D00E
:1053900029464046C84706436835EEE7044B1B687C
:1053A000186A044B002808BF1846F030704700BF49
:1053B000100000207400002070B50E46B1F90E10E8
:1053C000002996B014461D4607DA00232B60B389E6
:1053D0001A0610D44FF480630EE06A4600F068FEAF
:1053E0000028F2DB019A02F47042A2F500535A42FF
:1053F0005A412A60EEE740230020236016B070BDBA
:105400008B8973B59D0706460C4607D504F1470303
:10541000236023610123636102B070BD01AB6A4662
:10542000FFF7CAFF00990546304600F073FB48B904
:10543000B4F90C309A05EFD423F0030343F00203D0
:10544000A381E3E70D4BB362A389206043F080039F
:10545000A381009B6361019B20615BB1B4F90E10D5
:10546000304600F037FE28B1A38923F0030343F050
:105470000103A381A3891D43A581CDE751520008F3
:10548000024B0146186800F045BB00BF1000002029
:1054900010B5431E0A44914200D110BD11F8014BD2
:1054A00003F8014FF7E770B5456A04460E463DB96B
:1054B0001020FFF7E5FF6062C0E901550560C56097
:1054C000656AEB6883B1636ADB6853F82600B8B994
:1054D000012101FA06F56A1D9200204600F0BEFA8D
:1054E00060B1C0E901650EE021220421204600F0F0
:1054F000B5FA636AE860DB68002BE4D1002070BD78
:10550000026843F826200023C0E90333F7E770B5AB
:10551000446A06460D463CB91020FFF7B1FF7062A1
:10552000C0E901440460C4603DB1736A6A68DB6825
:1055300053F82210296043F8225070BD2DE9F04144
:105540000D691F4606460C4601F1140C0023DCF8D9
:10555000000081B202FB01710F0C000C02FB007015
:1055600089B2013301EB00419D424FEA10474CF8EC
:10557000041BECDCD7B1A368AB4212DC6168304697
:105580000131FFF790FF2269023204F10C018046DD
:1055900092000C30FFF77CFF21463046FFF7B7FF43
:1055A000444604EB850301355F6125612046BDE873
:1055B000F081020C12040346B2B90304102013F068
:1055C0007F4F04BF1B02083013F0704F04BF1B0154
:1055D000043013F0404F04BF9B000230002B06DB69
:1055E0005B0003D5013070470020E8E720207047BA
:1055F000036813F0070201460BD0DA0723D498079B
:1056000049BF5B089B0801200B605CBF0B60022058
:10561000704798B2A8B91B0C102013F0FF0F04BFFD
:105620001B0A08301A0704BF1B0904309A0704BF7D
:105630009B080230DA0702D45B0806D001300B6009
:1056400070471046E9E7002070472020704710B5EA
:105650000C460121FFF727FF01224461026110BDC2
:105660002DE9F74F14460A6923699A42B8BF0B46E1
:105670008846BCBFA0461C46D8F81070D4F81090DD
:10568000D8F80830D8F8041007EB0906B342B8BFC1
:105690000131FFF708FF00F1140505EB860E2B46DC
:1056A0000022734516D304F1140208F1140102EB31
:1056B000890301EB87070093009B019293420CD86A
:1056C000002E03DD5EF8043D002B5DD0066103B0C3
:1056D000BDE8F08F43F8042BE3E7B2F800B0BBF16C
:1056E000000F23D08946AC464FF0000859F8044B10
:1056F000DCF800A0A3B21FFA8AFA0BFB03A34FEA5F
:10570000144ADCF8004043444FEA14480BFB0A8477
:1057100004EB1344E2469BB243EA04434F454FEA8D
:1057200014484AF8043B2BD8CCF80480019BB3F80A
:1057300002A00432BAF1000F20D02B688946A84697
:105740004FF0000BB9F800C0B8F802400AFB0C4457
:105750005C44C4469BB243EA04434CF8043B59F80A
:10576000043BB8F804B01B0C0AFB03B303EB14436F
:105770004F454FEA134B05D8C8F8043004359BE772
:10578000D446B3E7E046DDE7013E99E72DE9F8436B
:10579000154612F0030206460F4607D0013A214C87
:1057A000002354F82220FFF7C9FE0746AD1035D07C
:1057B000746A3CB91020FFF763FE7062C0E90144CF
:1057C0000460C460D6F82480D8F808404CB940F290
:1057D00071213046FFF73BFF0023C8F8080004465C
:1057E00003604FF00008EB070AD5394622463046E1
:1057F000FFF736FF394681463046FFF788FE4F46B1
:105800006D100BD0206838B9224621463046FFF78C
:1058100027FF2060C0F800800446E4E73846BDE872
:10582000F88300BFD86300082DE9F0470C464FEA23
:10583000621A236949680AEB0309A36807461646FA
:1058400009F10105AB4232DB3846FFF72CFE00239D
:10585000804600F114011A4653452BDB20692AEAE1
:10586000EA7A04F1140316F01F0201EB8A0103EB3C
:10587000800C25D0C2F1200E00201E688A4696407A
:1058800030434AF8040B53F8040B9C4520FA0EF001
:1058900014D8486008B109F10205013D3846C8F83E
:1058A00010502146FFF733FE4046BDE8F087013136
:1058B0005B00C7E741F823200133CDE75146DCE721
:1058C000043953F8042B41F8042F9C45F9D8E4E738
:1058D00003690A699B1A30B50CD192001430143157
:1058E0008418114454F8045D51F8042D954203D0F6
:1058F00005D30123184630BDA042F3D3FAE74FF099
:10590000FF33F7E72DE9F0470D46074611462846D5
:105910001446FFF7DDFF061E08D131463846FFF773
:10592000C2FD0123C0E90436BDE8F087A4BF2346C9
:105930002C4638466168A6BF1D4600260126FFF7A3
:10594000B2FD2B69C660266905F1140904F1140241
:1059500002EB860709EB830800F114054FF0000EF7
:1059600052F804AB59F8044B1EFA8AF1A3B2C91AD3
:10597000230CC3EB1A4303EB214389B24FEA234EB6
:10598000C84541EA0343944645F8043BE8D8BC4582
:1059900004D355F8043D83B10661C5E75CF8041BE8
:1059A0001EFA81F31A1402EB11429BB243EA02433E
:1059B0004FEA224E45F8043BE9E7013EE9E72DE9CD
:1059C000F7430E46012159EC108B1546FFF76BFD8E
:1059D000C9F30A540746C9F3130334BB0193B8F162
:1059E000000327D002A840F8083DFFF701FE009908
:1059F000F0B1019AC0F1200302FA03F30B43C24055
:105A00007B610192019BBB61002B14BF022101212C
:105A10003961C4B1A4F2334404443460C0F13500A8
:105A20002860384603B0BDE8F08343F48013D5E71F
:105A30007961E7E701A8FFF7DBFD019B7B610121AD
:105A400039612030E5E707EB8103A0F23240306096
:105A50001869FFF7AEFDC0EB4110E1E738B502FB76
:105A600001F4214600F056F8054618B122460021FF
:105A7000FDF7A2FF284638BD38B50546002945D0B8
:105A800051F8043C0C1F002BB8BFE41800F056FB83
:105A90001F4A1368104633B9636014602846BDE896
:105AA000384000F04CBBA3420CD9216862189342E5
:105AB00004BF1A685B68636004BF52182260046008
:105AC000ECE713465A680AB1A242FAD91968581885
:105AD000A0420BD120680144581882421960DDD1E0
